{
  "_format": "hh-sol-artifact-1",
  "contractName": "StakingRewards",
  "sourceName": "contracts/StakingRewards.sol",
  "abi": [
    {
      "inputs": [
        {
          "internalType": "address",
          "name": "_rewardsDistribution",
          "type": "address"
        },
        {
          "internalType": "address",
          "name": "_rewardsToken",
          "type": "address"
        },
        {
          "internalType": "address",
          "name": "_stakingToken",
          "type": "address"
        },
        {
          "internalType": "uint256",
          "name": "_rewardsDuration",
          "type": "uint256"
        }
      ],
      "stateMutability": "nonpayable",
      "type": "constructor"
    },
    {
      "inputs": [],
      "name": "ReentrancyGuardReentrantCall",
      "type": "error"
    },
    {
      "inputs": [
        {
          "internalType": "address",
          "name": "token",
          "type": "address"
        }
      ],
      "name": "SafeERC20FailedOperation",
      "type": "error"
    },
    {
      "anonymous": false,
      "inputs": [
        {
          "indexed": true,
          "internalType": "address",
          "name": "owner",
          "type": "address"
        }
      ],
      "name": "OwnerUpdated",
      "type": "event"
    },
    {
      "anonymous": false,
      "inputs": [
        {
          "indexed": false,
          "internalType": "uint256",
          "name": "reward",
          "type": "uint256"
        }
      ],
      "name": "RewardAdded",
      "type": "event"
    },
    {
      "anonymous": false,
      "inputs": [
        {
          "indexed": true,
          "internalType": "address",
          "name": "user",
          "type": "address"
        },
        {
          "indexed": false,
          "internalType": "uint256",
          "name": "reward",
          "type": "uint256"
        }
      ],
      "name": "RewardPaid",
      "type": "event"
    },
    {
      "anonymous": false,
      "inputs": [
        {
          "indexed": true,
          "internalType": "address",
          "name": "distribution",
          "type": "address"
        }
      ],
      "name": "RewardsDistributionUpdated",
      "type": "event"
    },
    {
      "anonymous": false,
      "inputs": [
        {
          "indexed": false,
          "internalType": "uint256",
          "name": "duration",
          "type": "uint256"
        }
      ],
      "name": "RewardsDurationUpdated",
      "type": "event"
    },
    {
      "anonymous": false,
      "inputs": [
        {
          "indexed": true,
          "internalType": "address",
          "name": "user",
          "type": "address"
        },
        {
          "indexed": false,
          "internalType": "uint256",
          "name": "amount",
          "type": "uint256"
        }
      ],
      "name": "Staked",
      "type": "event"
    },
    {
      "anonymous": false,
      "inputs": [
        {
          "indexed": true,
          "internalType": "address",
          "name": "user",
          "type": "address"
        },
        {
          "indexed": false,
          "internalType": "uint256",
          "name": "amount",
          "type": "uint256"
        }
      ],
      "name": "Withdrawn",
      "type": "event"
    },
    {
      "inputs": [
        {
          "internalType": "address",
          "name": "account",
          "type": "address"
        }
      ],
      "name": "balanceOf",
      "outputs": [
        {
          "internalType": "uint256",
          "name": "",
          "type": "uint256"
        }
      ],
      "stateMutability": "view",
      "type": "function"
    },
    {
      "inputs": [
        {
          "internalType": "address",
          "name": "account",
          "type": "address"
        }
      ],
      "name": "earned",
      "outputs": [
        {
          "internalType": "uint256",
          "name": "",
          "type": "uint256"
        }
      ],
      "stateMutability": "view",
      "type": "function"
    },
    {
      "inputs": [],
      "name": "exit",
      "outputs": [],
      "stateMutability": "nonpayable",
      "type": "function"
    },
    {
      "inputs": [],
      "name": "getReward",
      "outputs": [],
      "stateMutability": "nonpayable",
      "type": "function"
    },
    {
      "inputs": [],
      "name": "lastTimeRewardApplicable",
      "outputs": [
        {
          "internalType": "uint256",
          "name": "",
          "type": "uint256"
        }
      ],
      "stateMutability": "view",
      "type": "function"
    },
    {
      "inputs": [],
      "name": "lastUpdateTime",
      "outputs": [
        {
          "internalType": "uint256",
          "name": "",
          "type": "uint256"
        }
      ],
      "stateMutability": "view",
      "type": "function"
    },
    {
      "inputs": [
        {
          "internalType": "uint256",
          "name": "reward",
          "type": "uint256"
        }
      ],
      "name": "notifyRewardAmount",
      "outputs": [],
      "stateMutability": "nonpayable",
      "type": "function"
    },
    {
      "inputs": [],
      "name": "owner",
      "outputs": [
        {
          "internalType": "address",
          "name": "",
          "type": "address"
        }
      ],
      "stateMutability": "view",
      "type": "function"
    },
    {
      "inputs": [],
      "name": "periodFinish",
      "outputs": [
        {
          "internalType": "uint256",
          "name": "",
          "type": "uint256"
        }
      ],
      "stateMutability": "view",
      "type": "function"
    },
    {
      "inputs": [],
      "name": "rewardPerToken",
      "outputs": [
        {
          "internalType": "uint256",
          "name": "",
          "type": "uint256"
        }
      ],
      "stateMutability": "view",
      "type": "function"
    },
    {
      "inputs": [],
      "name": "rewardPerTokenStored",
      "outputs": [
        {
          "internalType": "uint256",
          "name": "",
          "type": "uint256"
        }
      ],
      "stateMutability": "view",
      "type": "function"
    },
    {
      "inputs": [],
      "name": "rewardRate",
      "outputs": [
        {
          "internalType": "uint256",
          "name": "",
          "type": "uint256"
        }
      ],
      "stateMutability": "view",
      "type": "function"
    },
    {
      "inputs": [
        {
          "internalType": "address",
          "name": "",
          "type": "address"
        }
      ],
      "name": "rewards",
      "outputs": [
        {
          "internalType": "uint256",
          "name": "",
          "type": "uint256"
        }
      ],
      "stateMutability": "view",
      "type": "function"
    },
    {
      "inputs": [],
      "name": "rewardsDistribution",
      "outputs": [
        {
          "internalType": "address",
          "name": "",
          "type": "address"
        }
      ],
      "stateMutability": "view",
      "type": "function"
    },
    {
      "inputs": [],
      "name": "rewardsDuration",
      "outputs": [
        {
          "internalType": "uint256",
          "name": "",
          "type": "uint256"
        }
      ],
      "stateMutability": "view",
      "type": "function"
    },
    {
      "inputs": [],
      "name": "rewardsToken",
      "outputs": [
        {
          "internalType": "contract IERC20",
          "name": "",
          "type": "address"
        }
      ],
      "stateMutability": "view",
      "type": "function"
    },
    {
      "inputs": [
        {
          "internalType": "address",
          "name": "_owner",
          "type": "address"
        }
      ],
      "name": "setOwner",
      "outputs": [],
      "stateMutability": "nonpayable",
      "type": "function"
    },
    {
      "inputs": [
        {
          "internalType": "address",
          "name": "_distribution",
          "type": "address"
        }
      ],
      "name": "setRewardsDistribution",
      "outputs": [],
      "stateMutability": "nonpayable",
      "type": "function"
    },
    {
      "inputs": [
        {
          "internalType": "uint256",
          "name": "_duration",
          "type": "uint256"
        }
      ],
      "name": "setRewardsDuration",
      "outputs": [],
      "stateMutability": "nonpayable",
      "type": "function"
    },
    {
      "inputs": [
        {
          "internalType": "uint256",
          "name": "amount",
          "type": "uint256"
        }
      ],
      "name": "stake",
      "outputs": [],
      "stateMutability": "nonpayable",
      "type": "function"
    },
    {
      "inputs": [],
      "name": "stakingToken",
      "outputs": [
        {
          "internalType": "contract IERC20",
          "name": "",
          "type": "address"
        }
      ],
      "stateMutability": "view",
      "type": "function"
    },
    {
      "inputs": [],
      "name": "totalSupply",
      "outputs": [
        {
          "internalType": "uint256",
          "name": "",
          "type": "uint256"
        }
      ],
      "stateMutability": "view",
      "type": "function"
    },
    {
      "inputs": [
        {
          "internalType": "address",
          "name": "",
          "type": "address"
        }
      ],
      "name": "userRewardPerTokenPaid",
      "outputs": [
        {
          "internalType": "uint256",
          "name": "",
          "type": "uint256"
        }
      ],
      "stateMutability": "view",
      "type": "function"
    },
    {
      "inputs": [
        {
          "internalType": "uint256",
          "name": "amount",
          "type": "uint256"
        }
      ],
      "name": "withdraw",
      "outputs": [],
      "stateMutability": "nonpayable",
      "type": "function"
    }
  ],
  "bytecode": "0x60c060405234801561001057600080fd5b50604051610e92380380610e9283398101604081905261002f9161008e565b600160008190558054336001600160a01b031991821617909155600280549091166001600160a01b0395861617905591831660805290911660a0526005556100d9565b80516001600160a01b038116811461008957600080fd5b919050565b600080600080608085870312156100a457600080fd5b6100ad85610072565b93506100bb60208601610072565b92506100c960408601610072565b6060959095015193969295505050565b60805160a051610d7861011a600039600081816102620152818161059b01526109980152600081816103040152818161073401526108220152610d786000f3fe608060405234801561001057600080fd5b50600436106101575760003560e01c80637b0a47ee116100c3578063cc1a378f1161007c578063cc1a378f146102e4578063cd3daf9d146102f7578063d1af0c7d146102ff578063df136d6514610326578063e9fad8ee1461032f578063ebe2b12b1461033757600080fd5b80637b0a47ee1461028457806380faa57d1461028d5780638b876347146102955780638da5cb5b146102b5578063a694fc3a146102c8578063c8f33c91146102db57600080fd5b8063386a952511610115578063386a9525146101e55780633c6b16ab146101ee5780633d18b912146102015780633fc6df6e1461020957806370a082311461023457806372f702f31461025d57600080fd5b80628cc2621461015c5780630700037d1461018257806313af4035146101a257806318160ddd146101b757806319762143146101bf5780632e1a7d4d146101d2575b600080fd5b61016f61016a366004610c5d565b610340565b6040519081526020015b60405180910390f35b61016f610190366004610c5d565b60096020526000908152604090205481565b6101b56101b0366004610c5d565b6103bd565b005b600a5461016f565b6101b56101cd366004610c5d565b61043a565b6101b56101e0366004610c8d565b6104ae565b61016f60055481565b6101b56101fc366004610c8d565b610606565b6101b5610793565b60025461021c906001600160a01b031681565b6040516001600160a01b039091168152602001610179565b61016f610242366004610c5d565b6001600160a01b03166000908152600b602052604090205490565b61021c7f000000000000000000000000000000000000000000000000000000000000000081565b61016f60045481565b61016f610895565b61016f6102a3366004610c5d565b60086020526000908152604090205481565b60015461021c906001600160a01b031681565b6101b56102d6366004610c8d565b6108ae565b61016f60065481565b6101b56102f2366004610c8d565b6109f2565b61016f610a9d565b61021c7f000000000000000000000000000000000000000000000000000000000000000081565b61016f60075481565b6101b5610afe565b61016f60035481565b6001600160a01b0381166000908152600960209081526040808320546008909252822054670de0b6b3a764000090610376610a9d565b6103809190610cbc565b6001600160a01b0385166000908152600b60205260409020546103a39190610ccf565b6103ad9190610ce6565b6103b79190610d08565b92915050565b6001546001600160a01b031633146103f05760405162461bcd60e51b81526004016103e790610d1b565b60405180910390fd5b600180546001600160a01b0319166001600160a01b0383169081179091556040517f4ffd725fc4a22075e9ec71c59edf9c38cdeb588a91b24fc5b61388c5be41282b90600090a250565b6001546001600160a01b031633146104645760405162461bcd60e51b81526004016103e790610d1b565b600280546001600160a01b0319166001600160a01b0383169081179091556040517f1c794a043683a294127c95bc365bae91b63b651eb9884a2c9120afee2bb690b490600090a250565b6104b6610b1f565b336104bf610a9d565b6007556104ca610895565b6006556001600160a01b03811615610511576104e581610340565b6001600160a01b0382166000908152600960209081526040808320939093556007546008909152919020555b600082116105525760405162461bcd60e51b815260206004820152600e60248201526d053523a2077697468647261773d360941b60448201526064016103e7565b81600a60008282546105649190610cbc565b9091555050336000908152600b602052604081208054849290610588908490610cbc565b909155506105c290506001600160a01b037f0000000000000000000000000000000000000000000000000000000000000000163384610b49565b60405182815233907f7084f5476618d8e60b11ef0d7d3f06914655adb8793e28ff7f018d4c76d505d5906020015b60405180910390a2506106036001600055565b50565b6002546001600160a01b031633146106565760405162461bcd60e51b815260206004820152601360248201527229a91d103737ba103234b9ba3934b13aba37b960691b60448201526064016103e7565b6000610660610a9d565b60075561066b610895565b6006556001600160a01b038116156106b25761068681610340565b6001600160a01b0382166000908152600960209081526040808320939093556007546008909152919020555b60035442106106d0576005546106c89083610ce6565b600455610712565b6000426003546106e09190610cbc565b90506000600454826106f29190610ccf565b6005549091506107028286610d08565b61070c9190610ce6565b60045550505b42600681905560055461072491610d08565b60035561075c6001600160a01b037f000000000000000000000000000000000000000000000000000000000000000016333085610bad565b6040518281527fde88a922e0d3b88b24e9623efeb464919c6bf9f66857a65e2bfcf2ce87a9433d9060200160405180910390a15050565b61079b610b1f565b336107a4610a9d565b6007556107af610895565b6006556001600160a01b038116156107f6576107ca81610340565b6001600160a01b0382166000908152600960209081526040808320939093556007546008909152919020555b3360009081526009602052604090205480156108875733600081815260096020526040812055610851907f00000000000000000000000000000000000000000000000000000000000000006001600160a01b03169083610b49565b60405181815233907fe2403640ba68fed3a2f88b7557551d1993f84b99bb10ff833f0cf8db0c5e04869060200160405180910390a25b50506108936001600055565b565b600060035442106108a7575060035490565b425b905090565b6108b6610b1f565b336108bf610a9d565b6007556108ca610895565b6006556001600160a01b03811615610911576108e581610340565b6001600160a01b0382166000908152600960209081526040808320939093556007546008909152919020555b6000821161094f5760405162461bcd60e51b815260206004820152600b60248201526a053523a207374616b653d360ac1b60448201526064016103e7565b81600a60008282546109619190610d08565b9091555050336000908152600b602052604081208054849290610985908490610d08565b909155506109c090506001600160a01b037f000000000000000000000000000000000000000000000000000000000000000016333085610bad565b60405182815233907f9e71bc8eea02a63969f509818f2dafb9254532904319f9dbda79b67bd34a5f3d906020016105f0565b6001546001600160a01b03163314610a1c5760405162461bcd60e51b81526004016103e790610d1b565b6003544211610a625760405162461bcd60e51b815260206004820152601260248201527114d48e881bdb99dbda5b99c81c195c9a5bd960721b60448201526064016103e7565b60058190556040518181527ffb46ca5a5e06d4540d6387b930a7c978bce0db5f449ec6b3f5d07c6e1d44f2d39060200160405180910390a150565b6000600a54600003610ab0575060075490565b600a54600454600654610ac1610895565b610acb9190610cbc565b610ad59190610ccf565b610ae790670de0b6b3a7640000610ccf565b610af19190610ce6565b6007546108a99190610d08565b336000908152600b6020526040902054610b17906104ae565b610893610793565b600260005403610b4257604051633ee5aeb560e01b815260040160405180910390fd5b6002600055565b6040516001600160a01b03838116602483015260448201839052610ba891859182169063a9059cbb906064015b604051602081830303815290604052915060e01b6020820180516001600160e01b038381831617835250505050610bec565b505050565b6040516001600160a01b038481166024830152838116604483015260648201839052610be69186918216906323b872dd90608401610b76565b50505050565b600080602060008451602086016000885af180610c0f576040513d6000823e3d81fd5b50506000513d91508115610c27578060011415610c34565b6001600160a01b0384163b155b15610be657604051635274afe760e01b81526001600160a01b03851660048201526024016103e7565b600060208284031215610c6f57600080fd5b81356001600160a01b0381168114610c8657600080fd5b9392505050565b600060208284031215610c9f57600080fd5b5035919050565b634e487b7160e01b600052601160045260246000fd5b818103818111156103b7576103b7610ca6565b80820281158282048414176103b7576103b7610ca6565b600082610d0357634e487b7160e01b600052601260045260246000fd5b500490565b808201808211156103b7576103b7610ca6565b6020808252600d908201526c29a91d103737ba1037bbb732b960991b60408201526060019056fea26469706673582212208b04852e0762a94986b4e3a3c52c34efde19c91dd6e4a9360ff3cd800d9474e664736f6c63430008180033",
  "linkReferences": {},
  "deployedLinkReferences": {}
}